{
  "_format": "hh-sol-artifact-1",
  "contractName": "Valist",
  "sourceName": "contracts/Valist.sol",
  "abi": [
    {
      "inputs": [
        {
          "internalType": "address",
          "name": "metaTxForwarder",
          "type": "address"
        }
      ],
      "stateMutability": "nonpayable",
      "type": "constructor"
    },
    {
      "anonymous": false,
      "inputs": [
        {
          "indexed": true,
          "internalType": "bytes32",
          "name": "_orgID",
          "type": "bytes32"
        },
        {
          "indexed": true,
          "internalType": "string",
          "name": "_repoName",
          "type": "string"
        },
        {
          "indexed": true,
          "internalType": "address",
          "name": "_signer",
          "type": "address"
        },
        {
          "indexed": false,
          "internalType": "string",
          "name": "_metaCID",
          "type": "string"
        }
      ],
      "name": "MetaUpdate",
      "type": "event"
    },
    {
      "anonymous": false,
      "inputs": [
        {
          "indexed": false,
          "internalType": "bytes32",
          "name": "_orgID",
          "type": "bytes32"
        },
        {
          "indexed": true,
          "internalType": "string",
          "name": "_metaCIDHash",
          "type": "string"
        },
        {
          "indexed": false,
          "internalType": "string",
          "name": "_metaCID",
          "type": "string"
        }
      ],
      "name": "OrgCreated",
      "type": "event"
    },
    {
      "anonymous": false,
      "inputs": [
        {
          "indexed": false,
          "internalType": "bytes32",
          "name": "_orgID",
          "type": "bytes32"
        },
        {
          "indexed": true,
          "internalType": "string",
          "name": "_repoNameHash",
          "type": "string"
        },
        {
          "indexed": false,
          "internalType": "string",
          "name": "_repoName",
          "type": "string"
        },
        {
          "indexed": true,
          "internalType": "string",
          "name": "_metaCIDHash",
          "type": "string"
        },
        {
          "indexed": false,
          "internalType": "string",
          "name": "_metaCID",
          "type": "string"
        }
      ],
      "name": "RepoCreated",
      "type": "event"
    },
    {
      "anonymous": false,
      "inputs": [
        {
          "indexed": true,
          "internalType": "bytes32",
          "name": "_orgID",
          "type": "bytes32"
        },
        {
          "indexed": false,
          "internalType": "string",
          "name": "_repoName",
          "type": "string"
        },
        {
          "indexed": false,
          "internalType": "address",
          "name": "_signer",
          "type": "address"
        },
        {
          "indexed": false,
          "internalType": "bytes32",
          "name": "_operation",
          "type": "bytes32"
        },
        {
          "indexed": false,
          "internalType": "address",
          "name": "_key",
          "type": "address"
        },
        {
          "indexed": false,
          "internalType": "uint256",
          "name": "_sigCount",
          "type": "uint256"
        },
        {
          "indexed": false,
          "internalType": "uint256",
          "name": "_threshold",
          "type": "uint256"
        }
      ],
      "name": "VoteKeyEvent",
      "type": "event"
    },
    {
      "anonymous": false,
      "inputs": [
        {
          "indexed": false,
          "internalType": "bytes32",
          "name": "_orgID",
          "type": "bytes32"
        },
        {
          "indexed": false,
          "internalType": "string",
          "name": "_repoName",
          "type": "string"
        },
        {
          "indexed": false,
          "internalType": "string",
          "name": "_tag",
          "type": "string"
        },
        {
          "indexed": false,
          "internalType": "string",
          "name": "_releaseCID",
          "type": "string"
        },
        {
          "indexed": false,
          "internalType": "string",
          "name": "_metaCID",
          "type": "string"
        },
        {
          "indexed": false,
          "internalType": "address",
          "name": "_signer",
          "type": "address"
        },
        {
          "indexed": false,
          "internalType": "uint256",
          "name": "_sigCount",
          "type": "uint256"
        },
        {
          "indexed": false,
          "internalType": "uint256",
          "name": "_threshold",
          "type": "uint256"
        }
      ],
      "name": "VoteReleaseEvent",
      "type": "event"
    },
    {
      "anonymous": false,
      "inputs": [
        {
          "indexed": true,
          "internalType": "bytes32",
          "name": "_orgID",
          "type": "bytes32"
        },
        {
          "indexed": false,
          "internalType": "string",
          "name": "_repoName",
          "type": "string"
        },
        {
          "indexed": false,
          "internalType": "address",
          "name": "_signer",
          "type": "address"
        },
        {
          "indexed": true,
          "internalType": "uint256",
          "name": "_pendingThreshold",
          "type": "uint256"
        },
        {
          "indexed": false,
          "internalType": "uint256",
          "name": "_sigCount",
          "type": "uint256"
        },
        {
          "indexed": false,
          "internalType": "uint256",
          "name": "_threshold",
          "type": "uint256"
        }
      ],
      "name": "VoteThresholdEvent",
      "type": "event"
    },
    {
      "inputs": [
        {
          "internalType": "bytes32",
          "name": "_orgID",
          "type": "bytes32"
        },
        {
          "internalType": "string",
          "name": "_repoName",
          "type": "string"
        },
        {
          "internalType": "bytes32",
          "name": "_operation",
          "type": "bytes32"
        },
        {
          "internalType": "address",
          "name": "_key",
          "type": "address"
        },
        {
          "internalType": "uint256",
          "name": "_requestIndex",
          "type": "uint256"
        }
      ],
      "name": "clearPendingKey",
      "outputs": [],
      "stateMutability": "nonpayable",
      "type": "function"
    },
    {
      "inputs": [
        {
          "internalType": "bytes32",
          "name": "_orgID",
          "type": "bytes32"
        },
        {
          "internalType": "string",
          "name": "_repoName",
          "type": "string"
        },
        {
          "internalType": "string",
          "name": "_tag",
          "type": "string"
        },
        {
          "internalType": "string",
          "name": "_releaseCID",
          "type": "string"
        },
        {
          "internalType": "string",
          "name": "_metaCID",
          "type": "string"
        },
        {
          "internalType": "uint256",
          "name": "_requestIndex",
          "type": "uint256"
        }
      ],
      "name": "clearPendingRelease",
      "outputs": [],
      "stateMutability": "nonpayable",
      "type": "function"
    },
    {
      "inputs": [
        {
          "internalType": "bytes32",
          "name": "_orgID",
          "type": "bytes32"
        },
        {
          "internalType": "string",
          "name": "_repoName",
          "type": "string"
        },
        {
          "internalType": "uint256",
          "name": "_threshold",
          "type": "uint256"
        },
        {
          "internalType": "uint256",
          "name": "_requestIndex",
          "type": "uint256"
        }
      ],
      "name": "clearPendingThreshold",
      "outputs": [],
      "stateMutability": "nonpayable",
      "type": "function"
    },
    {
      "inputs": [
        {
          "internalType": "string",
          "name": "_orgMeta",
          "type": "string"
        }
      ],
      "name": "createOrganization",
      "outputs": [],
      "stateMutability": "nonpayable",
      "type": "function"
    },
    {
      "inputs": [
        {
          "internalType": "bytes32",
          "name": "_orgID",
          "type": "bytes32"
        },
        {
          "internalType": "string",
          "name": "_repoName",
          "type": "string"
        },
        {
          "internalType": "string",
          "name": "_repoMeta",
          "type": "string"
        }
      ],
      "name": "createRepository",
      "outputs": [],
      "stateMutability": "nonpayable",
      "type": "function"
    },
    {
      "inputs": [
        {
          "internalType": "bytes32",
          "name": "_orgID",
          "type": "bytes32"
        },
        {
          "internalType": "string",
          "name": "_repoName",
          "type": "string"
        }
      ],
      "name": "getLatestRelease",
      "outputs": [
        {
          "internalType": "string",
          "name": "",
          "type": "string"
        },
        {
          "internalType": "string",
          "name": "",
          "type": "string"
        },
        {
          "internalType": "string",
          "name": "",
          "type": "string"
        },
        {
          "internalType": "address[]",
          "name": "",
          "type": "address[]"
        }
      ],
      "stateMutability": "view",
      "type": "function"
    },
    {
      "inputs": [
        {
          "internalType": "bytes32",
          "name": "_selector",
          "type": "bytes32"
        }
      ],
      "name": "getPendingReleaseCount",
      "outputs": [
        {
          "internalType": "uint256",
          "name": "",
          "type": "uint256"
        }
      ],
      "stateMutability": "view",
      "type": "function"
    },
    {
      "inputs": [
        {
          "internalType": "bytes32",
          "name": "_selector",
          "type": "bytes32"
        }
      ],
      "name": "getPendingVotes",
      "outputs": [
        {
          "internalType": "uint256",
          "name": "",
          "type": "uint256"
        },
        {
          "internalType": "address[]",
          "name": "",
          "type": "address[]"
        }
      ],
      "stateMutability": "view",
      "type": "function"
    },
    {
      "inputs": [
        {
          "internalType": "bytes32",
          "name": "_selector",
          "type": "bytes32"
        },
        {
          "internalType": "uint256",
          "name": "_page",
          "type": "uint256"
        },
        {
          "internalType": "uint256",
          "name": "_resultsPerPage",
          "type": "uint256"
        }
      ],
      "name": "getReleaseTags",
      "outputs": [
        {
          "internalType": "string[]",
          "name": "",
          "type": "string[]"
        }
      ],
      "stateMutability": "view",
      "type": "function"
    },
    {
      "inputs": [
        {
          "internalType": "bytes32",
          "name": "_orgID",
          "type": "bytes32"
        },
        {
          "internalType": "uint256",
          "name": "_page",
          "type": "uint256"
        },
        {
          "internalType": "uint256",
          "name": "_resultsPerPage",
          "type": "uint256"
        }
      ],
      "name": "getRepoNames",
      "outputs": [
        {
          "internalType": "string[]",
          "name": "",
          "type": "string[]"
        }
      ],
      "stateMutability": "view",
      "type": "function"
    },
    {
      "inputs": [
        {
          "internalType": "bytes32",
          "name": "_selector",
          "type": "bytes32"
        }
      ],
      "name": "getRoleMembers",
      "outputs": [
        {
          "internalType": "address[]",
          "name": "",
          "type": "address[]"
        }
      ],
      "stateMutability": "view",
      "type": "function"
    },
    {
      "inputs": [
        {
          "internalType": "bytes32",
          "name": "_selector",
          "type": "bytes32"
        }
      ],
      "name": "getRoleRequestCount",
      "outputs": [
        {
          "internalType": "uint256",
          "name": "",
          "type": "uint256"
        }
      ],
      "stateMutability": "view",
      "type": "function"
    },
    {
      "inputs": [
        {
          "internalType": "bytes32",
          "name": "_selector",
          "type": "bytes32"
        }
      ],
      "name": "getThresholdRequestCount",
      "outputs": [
        {
          "internalType": "uint256",
          "name": "",
          "type": "uint256"
        }
      ],
      "stateMutability": "view",
      "type": "function"
    },
    {
      "inputs": [
        {
          "internalType": "bytes32",
          "name": "_orgID",
          "type": "bytes32"
        },
        {
          "internalType": "address",
          "name": "_address",
          "type": "address"
        }
      ],
      "name": "isOrgAdmin",
      "outputs": [
        {
          "internalType": "bool",
          "name": "",
          "type": "bool"
        }
      ],
      "stateMutability": "view",
      "type": "function"
    },
    {
      "inputs": [
        {
          "internalType": "bytes32",
          "name": "_orgID",
          "type": "bytes32"
        },
        {
          "internalType": "string",
          "name": "_repoName",
          "type": "string"
        },
        {
          "internalType": "address",
          "name": "_address",
          "type": "address"
        }
      ],
      "name": "isRepoDev",
      "outputs": [
        {
          "internalType": "bool",
          "name": "",
          "type": "bool"
        }
      ],
      "stateMutability": "view",
      "type": "function"
    },
    {
      "inputs": [
        {
          "internalType": "address",
          "name": "forwarder",
          "type": "address"
        }
      ],
      "name": "isTrustedForwarder",
      "outputs": [
        {
          "internalType": "bool",
          "name": "",
          "type": "bool"
        }
      ],
      "stateMutability": "view",
      "type": "function"
    },
    {
      "inputs": [],
      "name": "orgCount",
      "outputs": [
        {
          "internalType": "uint256",
          "name": "",
          "type": "uint256"
        }
      ],
      "stateMutability": "view",
      "type": "function"
    },
    {
      "inputs": [
        {
          "internalType": "uint256",
          "name": "",
          "type": "uint256"
        }
      ],
      "name": "orgIDs",
      "outputs": [
        {
          "internalType": "bytes32",
          "name": "",
          "type": "bytes32"
        }
      ],
      "stateMutability": "view",
      "type": "function"
    },
    {
      "inputs": [
        {
          "internalType": "bytes32",
          "name": "",
          "type": "bytes32"
        }
      ],
      "name": "orgs",
      "outputs": [
        {
          "internalType": "uint256",
          "name": "threshold",
          "type": "uint256"
        },
        {
          "internalType": "uint256",
          "name": "thresholdDate",
          "type": "uint256"
        },
        {
          "internalType": "string",
          "name": "metaCID",
          "type": "string"
        }
      ],
      "stateMutability": "view",
      "type": "function"
    },
    {
      "inputs": [
        {
          "internalType": "bytes32",
          "name": "",
          "type": "bytes32"
        },
        {
          "internalType": "uint256",
          "name": "",
          "type": "uint256"
        }
      ],
      "name": "pendingReleaseRequests",
      "outputs": [
        {
          "internalType": "string",
          "name": "tag",
          "type": "string"
        },
        {
          "internalType": "string",
          "name": "releaseCID",
          "type": "string"
        },
        {
          "internalType": "string",
          "name": "metaCID",
          "type": "string"
        }
      ],
      "stateMutability": "view",
      "type": "function"
    },
    {
      "inputs": [
        {
          "internalType": "bytes32",
          "name": "",
          "type": "bytes32"
        },
        {
          "internalType": "uint256",
          "name": "",
          "type": "uint256"
        }
      ],
      "name": "pendingRoleRequests",
      "outputs": [
        {
          "internalType": "address",
          "name": "",
          "type": "address"
        }
      ],
      "stateMutability": "view",
      "type": "function"
    },
    {
      "inputs": [
        {
          "internalType": "bytes32",
          "name": "",
          "type": "bytes32"
        },
        {
          "internalType": "uint256",
          "name": "",
          "type": "uint256"
        }
      ],
      "name": "pendingThresholdRequests",
      "outputs": [
        {
          "internalType": "uint256",
          "name": "",
          "type": "uint256"
        }
      ],
      "stateMutability": "view",
      "type": "function"
    },
    {
      "inputs": [
        {
          "internalType": "bytes32",
          "name": "",
          "type": "bytes32"
        }
      ],
      "name": "releases",
      "outputs": [
        {
          "internalType": "string",
          "name": "releaseCID",
          "type": "string"
        },
        {
          "internalType": "string",
          "name": "metaCID",
          "type": "string"
        }
      ],
      "stateMutability": "view",
      "type": "function"
    },
    {
      "inputs": [
        {
          "internalType": "bytes32",
          "name": "",
          "type": "bytes32"
        }
      ],
      "name": "repos",
      "outputs": [
        {
          "internalType": "bool",
          "name": "exists",
          "type": "bool"
        },
        {
          "internalType": "uint256",
          "name": "threshold",
          "type": "uint256"
        },
        {
          "internalType": "uint256",
          "name": "thresholdDate",
          "type": "uint256"
        },
        {
          "internalType": "string",
          "name": "metaCID",
          "type": "string"
        }
      ],
      "stateMutability": "view",
      "type": "function"
    },
    {
      "inputs": [
        {
          "internalType": "bytes32",
          "name": "",
          "type": "bytes32"
        }
      ],
      "name": "roleModifiedTimestamps",
      "outputs": [
        {
          "internalType": "uint256",
          "name": "",
          "type": "uint256"
        }
      ],
      "stateMutability": "view",
      "type": "function"
    },
    {
      "inputs": [
        {
          "internalType": "bytes32",
          "name": "_orgID",
          "type": "bytes32"
        },
        {
          "internalType": "string",
          "name": "_metaCID",
          "type": "string"
        }
      ],
      "name": "setOrgMeta",
      "outputs": [],
      "stateMutability": "nonpayable",
      "type": "function"
    },
    {
      "inputs": [
        {
          "internalType": "bytes32",
          "name": "_orgID",
          "type": "bytes32"
        },
        {
          "internalType": "string",
          "name": "_repoName",
          "type": "string"
        },
        {
          "internalType": "string",
          "name": "_metaCID",
          "type": "string"
        }
      ],
      "name": "setRepoMeta",
      "outputs": [],
      "stateMutability": "nonpayable",
      "type": "function"
    },
    {
      "inputs": [],
      "name": "versionRecipient",
      "outputs": [
        {
          "internalType": "string",
          "name": "",
          "type": "string"
        }
      ],
      "stateMutability": "view",
      "type": "function"
    },
    {
      "inputs": [
        {
          "internalType": "bytes32",
          "name": "_orgID",
          "type": "bytes32"
        },
        {
          "internalType": "string",
          "name": "_repoName",
          "type": "string"
        },
        {
          "internalType": "bytes32",
          "name": "_operation",
          "type": "bytes32"
        },
        {
          "internalType": "address",
          "name": "_key",
          "type": "address"
        }
      ],
      "name": "voteKey",
      "outputs": [],
      "stateMutability": "nonpayable",
      "type": "function"
    },
    {
      "inputs": [
        {
          "internalType": "bytes32",
          "name": "_orgID",
          "type": "bytes32"
        },
        {
          "internalType": "string",
          "name": "_repoName",
          "type": "string"
        },
        {
          "internalType": "string",
          "name": "_tag",
          "type": "string"
        },
        {
          "internalType": "string",
          "name": "_releaseCID",
          "type": "string"
        },
        {
          "internalType": "string",
          "name": "_metaCID",
          "type": "string"
        }
      ],
      "name": "voteRelease",
      "outputs": [],
      "stateMutability": "nonpayable",
      "type": "function"
    },
    {
      "inputs": [
        {
          "internalType": "bytes32",
          "name": "_orgID",
          "type": "bytes32"
        },
        {
          "internalType": "string",
          "name": "_repoName",
          "type": "string"
        },
        {
          "internalType": "uint256",
          "name": "_threshold",
          "type": "uint256"
        }
      ],
      "name": "voteThreshold",
      "outputs": [],
      "stateMutability": "nonpayable",
      "type": "function"
    }
  ],
  "bytecode": "0x60c060405260056080819052640322e322e360dc1b60a09081526200002891600191906200007f565b503480156200003657600080fd5b5060405162004a5938038062004a59833981016040819052620000599162000125565b600080546001600160a01b0319166001600160a01b039290921691909117905562000192565b8280546200008d9062000155565b90600052602060002090601f016020900481019282620000b15760008555620000fc565b82601f10620000cc57805160ff1916838001178555620000fc565b82800160010185558215620000fc579182015b82811115620000fc578251825591602001919060010190620000df565b506200010a9291506200010e565b5090565b5b808211156200010a57600081556001016200010f565b60006020828403121562000137578081fd5b81516001600160a01b03811681146200014e578182fd5b9392505050565b600181811c908216806200016a57607f821691505b602082108114156200018c57634e487b7160e01b600052602260045260246000fd5b50919050565b6148b780620001a26000396000f3fe608060405234801561001057600080fd5b50600436106101e55760003560e01c8063a3e84beb1161010f578063dedc3391116100a2578063f26f3c5611610071578063f26f3c56146104cd578063f3439d56146104e0578063f491a84c146104f3578063f735b3521461051457600080fd5b8063dedc339114610469578063dfec1bb01461047c578063e253f5e1146104a7578063e59dbfa4146104ba57600080fd5b8063c6c2a0be116100de578063c6c2a0be14610419578063d565e8601461042c578063d81066901461044d578063d96162a11461045657600080fd5b8063a3e84beb146103af578063a940abcb146103d1578063b93d1685146103f3578063c372be801461040657600080fd5b8063572b6c05116101875780638775692f116101565780638775692f1461033c5780638bf673701461034f578063924a54431461036f578063a3246ad31461038f57600080fd5b8063572b6c05146102c45780635cd20d29146102e65780636427acca14610309578063837dc4d01461031c57600080fd5b80633b0659fd116101c35780633b0659fd1461024e5780633e1bf64b1461027c57806340fd48a71461029c578063486ff0cd146102af57600080fd5b806302b2583a146101ea5780631fd522a614610216578063328d3ddf14610239575b600080fd5b6101fd6101f8366004613c59565b610527565b60405161020d9493929190614332565b60405180910390f35b610229610224366004613ce0565b6105de565b604051901515815260200161020d565b61024c610247366004613e61565b6106e5565b005b61026e61025c366004613c59565b6000908152600b602052604090205490565b60405190815260200161020d565b61026e61028a366004613c59565b6000908152600a602052604090205490565b61024c6102aa366004613d92565b610dcb565b6102b76111b4565b60405161020d919061451c565b6102296102d2366004613c3f565b6000546001600160a01b0391821691161490565b6102f96102f4366004613c9c565b611242565b60405161020d9493929190614614565b61024c6103173660046140b8565b611566565b61032f61032a36600461408d565b61178a565b60405161020d91906142d1565b61026e61034a366004613c59565b611952565b61026e61035d366004613c59565b60086020526000908152604090205481565b61026e61037d366004613c59565b60009081526009602052604090205490565b6103a261039d366004613c59565b611973565b60405161020d91906142be565b6103c26103bd366004613c59565b611a67565b60405161020d939291906146eb565b6103e46103df36600461406c565b611b12565b60405161020d939291906145db565b61024c610401366004614018565b611c6e565b61026e61041436600461406c565b611efc565b61024c610427366004613f12565b611f2d565b61043f61043a366004613c59565b612260565b60405161020d9291906146d2565b61026e60025481565b610229610464366004613c71565b61236e565b61024c610477366004613df8565b6123d6565b61048f61048a36600461406c565b6124b7565b6040516001600160a01b03909116815260200161020d565b61024c6104b5366004613c9c565b6124ef565b61024c6104c8366004613df8565b6125b4565b61024c6104db366004613d34565b6127ab565b61032f6104ee36600461408d565b612feb565b610506610501366004613c59565b6131a9565b60405161020d9291906145ad565b61024c610522366004613fcb565b6132d5565b600560205260009081526040902080546001820154600283015460038401805460ff90941694929391929161055b9061479f565b80601f01602080910402602001604051908101604052809291908181526020018280546105879061479f565b80156105d45780601f106105a9576101008083540402835291602001916105d4565b820191906000526020600020905b8154815290600101906020018083116105b757829003601f168201915b5050505050905084565b8151600090156106d1576005600085856040516020016105ff929190614159565b60408051601f198184030181529181528151602092830120835290820192909252016000205460ff166106635760405162461bcd60e51b81526020600482015260076024820152664e6f207265706f60c81b60448201526064015b60405180910390fd5b60008484600080516020614842833981519152604051602001610688939291906141be565b60408051601f1981840301815291815281516020928301206000818152600790935291209091506106b99084613820565b806106c957506106c9858461236e565b9150506106de565b6106db848361236e565b90505b9392505050565b84846106f48282610224613842565b6107105760405162461bcd60e51b815260040161065a90614691565b600085511161074a5760405162461bcd60e51b81526020600482015260066024820152654e6f2074616760d01b604482015260640161065a565b600084511161078b5760405162461bcd60e51b815260206004820152600d60248201526c139bc81c995b19585cd950d251609a1b604482015260640161065a565b60008351116107c95760405162461bcd60e51b815260206004820152600a602482015269139bc81b595d1850d25160b21b604482015260640161065a565b60008787876040516020016107e09392919061437a565b60408051601f1981840301815291815281516020928301206000818152600690935291208054919250906108139061479f565b15905061084d5760405162461bcd60e51b8152602060048201526008602482015267151859c81d5cd95960c21b604482015260640161065a565b600088888888886040516020016108689594939291906143a5565b60405160208183030381529060405280519060200120905060008989604051602001610895929190614159565b60405160208183030381529060405280519060200120905060016005600083815260200190815260200160002060010154116109f257600083815260066020908152604090912088516108ea928a0190613a4c565b506000838152600660209081526040909120875161091092600190920191890190613a4c565b50600083815260066020526040902060020161092a613842565b8154600180820184556000938452602080852090920180546001600160a01b0319166001600160a01b0394909416939093179092558383526005815260408320600401805492830181558352918290208a5161098e939190920191908b0190613a4c565b507f38b17387282322f8d6de03e5d4b3ff512d3bb4d3db8cc2be4611ecfb8a126c6b8a8a8a8a8a6109bd613842565b6000888152600560205260409081902060019081015491516109e59897969594939290614404565b60405180910390a1610dbf565b6000828152600c6020526040902054610ad457610a124262093a8061470a565b6000838152600c6020526040902055610a43610a2c613842565b6000848152600c6020526040902060010190613868565b50600081815260096020908152604080832081516060810183528c81528084018c90529182018a905280546001810182559084529282902081518051929460030290910192610a9792849290910190613a4c565b506020828101518051610ab09260018501920190613a4c565b5060408201518051610acc916002840191602090910190613a4c565b505050610d47565b6000828152600c6020526040902054421115610b025760405162461bcd60e51b815260040161065a906146b1565b610b24610b0d613842565b6000848152600c6020526040902060010190613820565b15610b5e5760405162461bcd60e51b815260206004820152600a602482015269155cd95c881d9bdd195960b21b604482015260640161065a565b610b69610a2c613842565b5060005b6000838152600c60205260409020610b879060010161387d565b811015610c01576000838152600c60205260409020610bb1908c908c906102249060010185613887565b610bf1576000838152600c60205260409020610beb90610bd49060010183613887565b6000858152600c6020526040902060010190613893565b50600090505b610bfa816147da565b9050610b6d565b506000818152600560209081526040808320600190810154868552600c90935292209091610c2f910161387d565b10610d475760008381526006602090815260409091208851610c53928a0190613a4c565b5060008381526006602090815260409091208751610c7992600190920191890190613a4c565b5060005b6000838152600c60205260409020610c979060010161387d565b811015610d0f576000848152600660209081526040808320868452600c909252909120600290910190610ccd9060010183613887565b81546001810183556000928352602090922090910180546001600160a01b0319166001600160a01b03909216919091179055610d08816147da565b9050610c7d565b50600081815260056020908152604082206004018054600181018255908352918190208a51610d459391909101918b0190613a4c565b505b7f38b17387282322f8d6de03e5d4b3ff512d3bb4d3db8cc2be4611ecfb8a126c6b8a8a8a8a8a610d75613842565b6000898152600c60205260409020610d8f9060010161387d565b60008981526005602052604090819020600101549051610db6989796959493929190614404565b60405180910390a15b50505050505050505050565b8484610dda8282610224613842565b610df65760405162461bcd60e51b815260040161065a90614691565b600080516020614822833981519152851480610e3157507fb85a6b22a26ce426daea6357c60a74cb0b4d36234cd7c96170cd6a64102786ff85145b610e6a5760405162461bcd60e51b815260206004820152600a6024820152690496e76616c6964206f760b41b604482015260640161065a565b6000806000898988604051602001610e849392919061417f565b604051602081830303815290604052805190602001209050600089511115610f155789896000805160206148428339815191528a8a604051602001610ecd9594939291906141eb565b6040516020818303038152906040528051906020012092508989604051602001610ef8929190614159565b604051602081830303815290604052805190602001209150610f6f565b60408051602081018c90526000805160206148628339815191529181019190915260608082018a905288901b6001600160601b03191660808201526094016040516020818303038152906040528051906020012092508991505b6000838152600c602052604090205442101580610fb657506000838152600c6020526040902054610fa49062093a8090614741565b60008281526008602052604090205410155b610fd25760405162461bcd60e51b815260040161065a9061466c565b6000828152600a6020526040902080546001600160a01b03891691908890811061100c57634e487b7160e01b600052603260045260246000fd5b6000918252602090912001546001600160a01b03161461105a5760405162461bcd60e51b815260206004820152600960248201526857726f6e67206b657960b81b604482015260640161065a565b6000838152600c602052604081206110749060010161387d565b111561109f576000838152600c6020526040812061109991610bd49160010190613887565b5061105a565b6000838152600c60209081526040808320839055848352600a909152902080546110cb90600190614741565b815481106110e957634e487b7160e01b600052603260045260246000fd5b6000918252602080832090910154848352600a909152604090912080546001600160a01b03909216918890811061113057634e487b7160e01b600052603260045260246000fd5b600091825260208083209190910180546001600160a01b0319166001600160a01b039490941693909317909255838152600a9091526040902080548061118657634e487b7160e01b600052603160045260246000fd5b600082815260209020810160001990810180546001600160a01b031916905501905550505050505050505050565b600180546111c19061479f565b80601f01602080910402602001604051908101604052809291908181526020018280546111ed9061479f565b801561123a5780601f1061120f5761010080835404028352916020019161123a565b820191906000526020600020905b81548152906001019060200180831161121d57829003601f168201915b505050505081565b6060806060806000600560008888604051602001611261929190614159565b6040516020818303038152906040528051906020012081526020019081526020016000209050600060066000898985600401600187600401805490506112a79190614741565b815481106112c557634e487b7160e01b600052603260045260246000fd5b906000526020600020016040516020016112e193929190614484565b6040516020818303038152906040528051906020012081526020019081526020016000209050816004016001836004018054905061131f9190614741565b8154811061133d57634e487b7160e01b600052603260045260246000fd5b9060005260206000200181600001826001018360020183805461135f9061479f565b80601f016020809104026020016040519081016040528092919081815260200182805461138b9061479f565b80156113d85780601f106113ad576101008083540402835291602001916113d8565b820191906000526020600020905b8154815290600101906020018083116113bb57829003601f168201915b505050505093508280546113eb9061479f565b80601f01602080910402602001604051908101604052809291908181526020018280546114179061479f565b80156114645780601f1061143957610100808354040283529160200191611464565b820191906000526020600020905b81548152906001019060200180831161144757829003601f168201915b505050505092508180546114779061479f565b80601f01602080910402602001604051908101604052809291908181526020018280546114a39061479f565b80156114f05780601f106114c5576101008083540402835291602001916114f0565b820191906000526020600020905b8154815290600101906020018083116114d357829003601f168201915b505050505091508080548060200260200160405190810160405280929190818152602001828054801561154c57602002820191906000526020600020905b81546001600160a01b0316815260019091019060200180831161152e575b505050505090509550955095509550505092959194509250565b60008151116115a45760405162461bcd60e51b815260206004820152600a6024820152694e6f206f72674d65746160b01b604482015260640161065a565b60006002600081546115b5906147da565b9182905550604080516020810192909252469082015260600160408051601f19818403018152918152815160209283012060008181526004845291909120845191935061160b9260029091019190850190613a4c565b50600380546001810182556000919091527fc2575a0e9e593c00f959f8c92f12db2869c3395a3b0502d05e2516446f71f85b018190556116ac61164c613842565b600760008460008051602061486283398151915260405160200161167a929190918252602082015260400190565b60405160208183030381529060405280519060200120815260200190815260200160002061386890919063ffffffff16565b50816040516116bb9190614233565b60405180910390207fc5eb86c0b2c1ce6abdc8dea996a5aa6cf196b33ee7a2c140ce4f04f2fbb3baab82846040516116f4929190614359565b60405180910390a2807fa8cea71b77054741d93ac504e0ee90fa3e815d68104468d65f9eb36924a8d590611726613842565b60008051602061482283398151915261173d613842565b6040805160c080825260009082018190526001600160a01b03958616602083015291810193909352921660608201526080810182905260a081019190915260e00160405180910390a25050565b60606000826117998582614722565b6117a39190614741565b905060006117b18486614722565b6000878152600460205260409020600301549091508111156117e157506000858152600460205260409020600301545b6000846001600160401b0381111561180957634e487b7160e01b600052604160045260246000fd5b60405190808252806020026020018201604052801561183c57816020015b60608152602001906001900390816118275790505b5090505b8183101561194857600087815260046020526040902060030180548490811061187957634e487b7160e01b600052603260045260246000fd5b90600052602060002001805461188e9061479f565b80601f01602080910402602001604051908101604052809291908181526020018280546118ba9061479f565b80156119075780601f106118dc57610100808354040283529160200191611907565b820191906000526020600020905b8154815290600101906020018083116118ea57829003601f168201915b505050505081848151811061192c57634e487b7160e01b600052603260045260246000fd5b602002602001018190525082611941906147da565b9250611840565b9695505050505050565b6003818154811061196257600080fd5b600091825260209091200154905081565b60008181526007602052604081206060919061198e9061387d565b6001600160401b038111156119b357634e487b7160e01b600052604160045260246000fd5b6040519080825280602002602001820160405280156119dc578160200160208202803683370190505b50905060005b60008481526007602052604090206119f99061387d565b811015611a60576000848152600760205260409020611a189082613887565b828281518110611a3857634e487b7160e01b600052603260045260246000fd5b6001600160a01b0390921660209283029190910190910152611a59816147da565b90506119e2565b5092915050565b60046020526000908152604090208054600182015460028301805492939192611a8f9061479f565b80601f0160208091040260200160405190810160405280929190818152602001828054611abb9061479f565b8015611b085780601f10611add57610100808354040283529160200191611b08565b820191906000526020600020905b815481529060010190602001808311611aeb57829003601f168201915b5050505050905083565b60096020528160005260406000208181548110611b2e57600080fd5b906000526020600020906003020160009150915050806000018054611b529061479f565b80601f0160208091040260200160405190810160405280929190818152602001828054611b7e9061479f565b8015611bcb5780601f10611ba057610100808354040283529160200191611bcb565b820191906000526020600020905b815481529060010190602001808311611bae57829003601f168201915b505050505090806001018054611be09061479f565b80601f0160208091040260200160405190810160405280929190818152602001828054611c0c9061479f565b8015611c595780601f10611c2e57610100808354040283529160200191611c59565b820191906000526020600020905b815481529060010190602001808311611c3c57829003601f168201915b505050505090806002018054611a8f9061479f565b8383611c7d8282610224613842565b611c995760405162461bcd60e51b815260040161065a90614691565b60008086511190506000878787604051602001611cb8939291906141be565b60405160208183030381529060405280519060200120905060008215611d08578888604051602001611ceb929190614159565b604051602081830303815290604052805190602001209050611d0b565b50875b6000828152600c602052604090205442101580611d5d5750828015611d5d57506000828152600c6020526040902054611d489062093a8090614741565b60008281526005602052604090206002015410155b80611d9e575082158015611d9e57506000828152600c6020526040902054611d899062093a8090614741565b60008a81526004602052604090206001015410155b611dba5760405162461bcd60e51b815260040161065a9061466c565b6000828152600c60205260408120611dd49060010161387d565b1115611e16576000828152600c60205260408120611e1091611df99160010190613887565b6000848152600c6020526040902060010190613893565b50611dba565b6000828152600c60209081526040808320839055838352600b90915290208054611e4290600190614741565b81548110611e6057634e487b7160e01b600052603260045260246000fd5b9060005260206000200154600b60008381526020019081526020016000208781548110611e9d57634e487b7160e01b600052603260045260246000fd5b9060005260206000200181905550600b6000828152602001908152602001600020805480611edb57634e487b7160e01b600052603160045260246000fd5b60019003818190600052602060002001600090559055505050505050505050565b600b6020528160005260406000208181548110611f1857600080fd5b90600052602060002001600091509150505481565b8585611f3c8282610224613842565b611f585760405162461bcd60e51b815260040161065a90614691565b6000888888604051602001611f6f9392919061437a565b60405160208183030381529060405280519060200120905060008989898989604051602001611fa29594939291906143a5565b60408051601f1981840301815291815281516020928301206000818152600c90935291205490915042101580611ff0575060008281526006602052604081208054611fec9061479f565b9050115b61200c5760405162461bcd60e51b815260040161065a9061466c565b60008a8a604051602001612021929190614159565b6040516020818303038152906040528051906020012090508860405160200161204a9190614233565b60408051601f19818403018152918152815160209283012060008481526009909352912080548890811061208e57634e487b7160e01b600052603260045260246000fd5b90600052602060002090600302016000016040516020016120af919061424f565b60405160208183030381529060405280519060200120146120fe5760405162461bcd60e51b815260206004820152600960248201526857726f6e672074616760b81b604482015260640161065a565b6000818152600960205260409020805461211a90600190614741565b8154811061213857634e487b7160e01b600052603260045260246000fd5b906000526020600020906003020160096000838152602001908152602001600020878154811061217857634e487b7160e01b600052603260045260246000fd5b9060005260206000209060030201600082018160000190805461219a9061479f565b6121a5929190613ad0565b5060018201816001019080546121ba9061479f565b6121c5929190613ad0565b5060028201816002019080546121da9061479f565b6121e5929190613ad0565b505050600081815260096020526040902080548061221357634e487b7160e01b600052603160045260246000fd5b600082815260208120600019909201916003830201906122338282613b4b565b612241600183016000613b4b565b61224f600283016000613b4b565b505090555050505050505050505050565b6000818152600c60205260408120606090829061227f9060010161387d565b6001600160401b038111156122a457634e487b7160e01b600052604160045260246000fd5b6040519080825280602002602001820160405280156122cd578160200160208202803683370190505b50905060005b6000858152600c602052604090206122ed9060010161387d565b811015612357576000858152600c6020526040902061230f9060010182613887565b82828151811061232f57634e487b7160e01b600052603260045260246000fd5b6001600160a01b0390921660209283029190910190910152612350816147da565b90506122d3565b506000938452600c60205260409093205493915050565b6000808360008051602061486283398151915260405160200161239b929190918252602082015260400190565b60408051601f1981840301815291815281516020928301206000818152600790935291209091506123cc9084613820565b9150505b92915050565b826123e381610464613842565b6123ff5760405162461bcd60e51b815260040161065a90614691565b81600560008686604051602001612417929190614159565b6040516020818303038152906040528051906020012081526020019081526020016000206003019080519060200190612451929190613a4c565b5061245a613842565b6001600160a01b0316836040516124719190614233565b6040518091039020857f082dfc0cda6cc25674875e2dcd882c68a8b2c80bf48e58c6a3dc2384c6985955856040516124a9919061451c565b60405180910390a450505050565b600a60205281600052604060002081815481106124d357600080fd5b6000918252602090912001546001600160a01b03169150829050565b816124fc81610464613842565b6125185760405162461bcd60e51b815260040161065a90614691565b6000838152600460209081526040909120835161253d92600290920191850190613a4c565b50612546613842565b6040516001600160a01b0391909116907fc5d2460186f7233c927e7db2dcc703c0e500b653ca82273b7bfad8045d85a4709085907f082dfc0cda6cc25674875e2dcd882c68a8b2c80bf48e58c6a3dc2384c6985955906125a790879061451c565b60405180910390a4505050565b826125c181610464613842565b6125dd5760405162461bcd60e51b815260040161065a90614691565b600084846040516020016125f2929190614159565b60408051601f1981840301815291815281516020928301206000818152600590935291205490915060ff16156126585760405162461bcd60e51b815260206004820152600b60248201526a5265706f2065786973747360a81b604482015260640161065a565b60008451116126975760405162461bcd60e51b815260206004820152600b60248201526a4e6f207265706f4e616d6560a81b604482015260640161065a565b60008351116126d65760405162461bcd60e51b815260206004820152600b60248201526a4e6f207265706f4d65746160a81b604482015260640161065a565b60008581526004602090815260408220600301805460018101825590835291819020865161270b939190910191870190613a4c565b506000818152600560209081526040909120805460ff19166001178155845161273c92600390920191860190613a4c565b508260405161274b9190614233565b6040518091039020846040516127619190614233565b60405180910390207f50b56e7c402d556bc61b6fc9bba647b83c4590f2fca5a6d463450e78f3a2d44c87878760405161279c9392919061437a565b60405180910390a35050505050565b83836127ba8282610224613842565b6127d65760405162461bcd60e51b815260040161065a90614691565b60008051602061482283398151915284148061281157507fb85a6b22a26ce426daea6357c60a74cb0b4d36234cd7c96170cd6a64102786ff84145b8061283b57507fd7381cbf120651c7bcd9cff77aa8449385520247d98372358854435c90a30af484145b6128745760405162461bcd60e51b815260206004820152600a6024820152690496e76616c6964206f760b41b604482015260640161065a565b60008086511190506000806000808a8a896040516020016128979392919061417f565b60405160208183030381529060405280519060200120905060008515612976578b8b6000805160206148428339815191528c8c6040516020016128de9594939291906141eb565b6040516020818303038152906040528051906020012094508b8b600080516020614842833981519152604051602001612919939291906141be565b6040516020818303038152906040528051906020012093508b8b604051602001612944929190614159565b60408051601f198184030181529181528151602092830120600081815260059093529120600101549093509050612a18565b60408051602081018e90526000805160206148628339815191529181019190915260608082018c90528a901b6001600160601b031916608082015260940160408051601f1981840301815282825280516020918201209083018f905260008051602061486283398151915291830191909152955060600160408051601f19818403018152918152815160209283012060008f8152600490935291205490945090505b7fb85a6b22a26ce426daea6357c60a74cb0b4d36234cd7c96170cd6a64102786ff8a1415612a92576000848152600760205260409020612a58908a613820565b612a8d5760405162461bcd60e51b81526020600482015260066024820152654e6f204b657960d01b604482015260640161065a565b612ae4565b6000848152600760205260409020612aaa908a613820565b15612ae45760405162461bcd60e51b815260206004820152600a6024820152694b65792065786973747360b01b604482015260640161065a565b7fd7381cbf120651c7bcd9cff77aa8449385520247d98372358854435c90a30af48a1415612b8557612b2b612b17613842565b600086815260076020526040902090613820565b612b475760405162461bcd60e51b815260040161065a90614691565b612b66612b52613842565b600086815260076020526040902090613893565b506000848152600760205260409020612b7f908a613868565b50612f79565b60018111612bd3576000805160206148228339815191528a1415612bbb576000848152600760205260409020612b7f908a613868565b6000848152600760205260409020612b7f908a613893565b6000858152600c6020526040902054612c8057612bf34262093a8061470a565b6000868152600c60205260409020558515612c44576000838152600a602090815260408220805460018101825590835291200180546001600160a01b0319166001600160a01b038b16179055612ce3565b60008c8152600a602090815260408220805460018101825590835291200180546001600160a01b0319166001600160a01b038b16179055612ce3565b6000858152600c602052604090205442111580612cc757506000858152600c6020526040902054612cb59062093a8090614741565b60008381526008602052604090205411155b612ce35760405162461bcd60e51b815260040161065a906146b1565b612d05612cee613842565b6000878152600c6020526040902060010190613868565b5060005b6000868152600c60205260409020612d239060010161387d565b811015612dda57868015612d5757506000868152600c60205260409020612d55908e908e906102249060010185613887565b155b80612d89575086158015612d8957506000868152600c60205260409020612d87908e906104649060010184613887565b155b15612dca576000868152600c60205260409020612dc490612dad9060010183613887565b6000888152600c6020526040902060010190613893565b50600090505b612dd3816147da565b9050612d09565b506000858152600c602052604090208190612df79060010161387d565b10612f79576000805160206148228339815191528a1415612e30576000848152600760205260409020612e2a908a613868565b50612f67565b6000848152600760205260409020612e48908a613893565b506000612ea5600760008f600080516020614862833981519152604051602001612e7c929190918252602082015260400190565b60405160208183030381529060405280519060200120815260200190815260200160002061387d565b9050868015612ee2575060008581526007602052604090208290600190612ecb9061387d565b612ed5908461470a565b612edf9190614741565b11155b15612f0e576000848152600560205260408120600101805491612f0483614788565b9190505550612f65565b86158015612f40575060008581526007602052604090208290600190612f339061387d565b612f3d9190614741565b11155b15612f655760008d8152600460205260408120805491612f5f83614788565b91905055505b505b60008281526008602052604090204290555b8b7fa8cea71b77054741d93ac504e0ee90fa3e815d68104468d65f9eb36924a8d5908c612fa4613842565b6000898152600c602052604090208e908e90612fc29060010161387d565b87604051612fd59695949392919061452f565b60405180910390a2505050505050505050505050565b6060600082612ffa8582614722565b6130049190614741565b905060006130128486614722565b60008781526005602052604090206004015490915081111561304257506000858152600560205260409020600401545b6000846001600160401b0381111561306a57634e487b7160e01b600052604160045260246000fd5b60405190808252806020026020018201604052801561309d57816020015b60608152602001906001900390816130885790505b5090505b818310156119485760008781526005602052604090206004018054849081106130da57634e487b7160e01b600052603260045260246000fd5b9060005260206000200180546130ef9061479f565b80601f016020809104026020016040519081016040528092919081815260200182805461311b9061479f565b80156131685780601f1061313d57610100808354040283529160200191613168565b820191906000526020600020905b81548152906001019060200180831161314b57829003601f168201915b505050505081848151811061318d57634e487b7160e01b600052603260045260246000fd5b6020026020010181905250826131a2906147da565b92506130a1565b6006602052600090815260409020805481906131c49061479f565b80601f01602080910402602001604051908101604052809291908181526020018280546131f09061479f565b801561323d5780601f106132125761010080835404028352916020019161323d565b820191906000526020600020905b81548152906001019060200180831161322057829003601f168201915b5050505050908060010180546132529061479f565b80601f016020809104026020016040519081016040528092919081815260200182805461327e9061479f565b80156132cb5780601f106132a0576101008083540402835291602001916132cb565b820191906000526020600020905b8154815290600101906020018083116132ae57829003601f168201915b5050505050905082565b82826132e48282610224613842565b6133005760405162461bcd60e51b815260040161065a90614691565b60008085511190506000868660405160200161331d929190614159565b6040516020818303038152906040528051906020012090506000808315613359575050600081815260056020526040902060010154819061336d565b505060008781526004602052604090205487905b808714156133ad5760405162461bcd60e51b815260206004820152600d60248201526c151a1c995cda1bdb19081cd95d609a1b604482015260640161065a565b60008989896040516020016133c4939291906141be565b6040516020818303038152906040528051906020012090506133fe6133e7613842565b6000838152600c6020526040902060010190613820565b156134385760405162461bcd60e51b815260206004820152600a602482015269155cd95c881d9bdd195960b21b604482015260640161065a565b8480156134b557506001613473600760008d600080516020614862833981519152604051602001612e7c929190918252602082015260400190565b61349d600760008e8e600080516020614842833981519152604051602001612e7c939291906141be565b6134a7919061470a565b6134b19190614741565b8811155b80613505575084158015613505575060016134f7600760008d600080516020614862833981519152604051602001612e7c929190918252602082015260400190565b6135019190614741565b8811155b6135465760405162461bcd60e51b81526020600482015260126024820152714e6f7420656e6f756768206d656d6265727360701b604482015260640161065a565b6000818152600c602052604090205461359c576135664262093a8061470a565b6000828152600c6020908152604080832093909355858252600b815291812080546001810182559082529190200188905561364b565b6000818152600c6020526040902054421115806135ee57508480156135ee57506000818152600c60205260409020546135d99062093a8090614741565b60008581526005602052604090206002015411155b8061362f57508415801561362f57506000818152600c602052604090205461361a9062093a8090614741565b60008b81526004602052604090206001015411155b61364b5760405162461bcd60e51b815260040161065a906146b1565b61366d613656613842565b6000838152600c6020526040902060010190613868565b5060005b6000828152600c6020526040902061368b9060010161387d565b81101561372b578580156136bf57506000828152600c602052604090206136bd908c908c906102249060010185613887565b155b806136f15750851580156136f157506000828152600c602052604090206136ef908c906104649060010184613887565b155b1561371b576000828152600c6020526040902061371590611df99060010183613887565b50600090505b613724816147da565b9050613671565b506000818152600c6020526040902082906137489060010161387d565b1015801561377057506000818152600c60205260409020889061376d9060010161387d565b10155b156137b557841561379c57600084815260056020526040902060018101899055426002909101556137b5565b60008a8152600460205260409020888155426001909101555b878a7f2daad345bbc18b1fa8a7f542403081df42c546dd841a44507d53e174e761ce898b6137e1613842565b6000868152600c602052604090206137fb9060010161387d565b8760405161380c9493929190614575565b60405180910390a350505050505050505050565b6001600160a01b038116600090815260018301602052604081205415156106de565b600080546001600160a01b0316331415613863575060131936013560601c90565b503390565b60006106de836001600160a01b0384166138a8565b60006123d0825490565b60006106de83836138f7565b60006106de836001600160a01b03841661392f565b60008181526001830160205260408120546138ef575081546001818101845560008481526020808220909301849055845484825282860190935260409020919091556123d0565b5060006123d0565b600082600001828154811061391c57634e487b7160e01b600052603260045260246000fd5b9060005260206000200154905092915050565b60008181526001830160205260408120548015613a42576000613953600183614741565b855490915060009061396790600190614741565b90508181146139e857600086600001828154811061399557634e487b7160e01b600052603260045260246000fd5b90600052602060002001549050808760000184815481106139c657634e487b7160e01b600052603260045260246000fd5b6000918252602080832090910192909255918252600188019052604090208390555b8554869080613a0757634e487b7160e01b600052603160045260246000fd5b6001900381819060005260206000200160009055905585600101600086815260200190815260200160002060009055600193505050506123d0565b60009150506123d0565b828054613a589061479f565b90600052602060002090601f016020900481019282613a7a5760008555613ac0565b82601f10613a9357805160ff1916838001178555613ac0565b82800160010185558215613ac0579182015b82811115613ac0578251825591602001919060010190613aa5565b50613acc929150613b88565b5090565b828054613adc9061479f565b90600052602060002090601f016020900481019282613afe5760008555613ac0565b82601f10613b0f5780548555613ac0565b82800160010185558215613ac057600052602060002091601f016020900482015b82811115613ac0578254825591600101919060010190613b30565b508054613b579061479f565b6000825580601f10613b67575050565b601f016020900490600052602060002090810190613b859190613b88565b50565b5b80821115613acc5760008155600101613b89565b80356001600160a01b0381168114613bb457600080fd5b919050565b600082601f830112613bc9578081fd5b81356001600160401b0380821115613be357613be361480b565b604051601f8301601f19908116603f01168101908282118183101715613c0b57613c0b61480b565b81604052838152866020858801011115613c23578485fd5b8360208701602083013792830160200193909352509392505050565b600060208284031215613c50578081fd5b6106de82613b9d565b600060208284031215613c6a578081fd5b5035919050565b60008060408385031215613c83578081fd5b82359150613c9360208401613b9d565b90509250929050565b60008060408385031215613cae578182fd5b8235915060208301356001600160401b03811115613cca578182fd5b613cd685828601613bb9565b9150509250929050565b600080600060608486031215613cf4578081fd5b8335925060208401356001600160401b03811115613d10578182fd5b613d1c86828701613bb9565b925050613d2b60408501613b9d565b90509250925092565b60008060008060808587031215613d49578081fd5b8435935060208501356001600160401b03811115613d65578182fd5b613d7187828801613bb9565b93505060408501359150613d8760608601613b9d565b905092959194509250565b600080600080600060a08688031215613da9578081fd5b8535945060208601356001600160401b03811115613dc5578182fd5b613dd188828901613bb9565b94505060408601359250613de760608701613b9d565b949793965091946080013592915050565b600080600060608486031215613e0c578283fd5b8335925060208401356001600160401b0380821115613e29578384fd5b613e3587838801613bb9565b93506040860135915080821115613e4a578283fd5b50613e5786828701613bb9565b9150509250925092565b600080600080600060a08688031215613e78578081fd5b8535945060208601356001600160401b0380821115613e95578283fd5b613ea189838a01613bb9565b95506040880135915080821115613eb6578283fd5b613ec289838a01613bb9565b94506060880135915080821115613ed7578283fd5b613ee389838a01613bb9565b93506080880135915080821115613ef8578283fd5b50613f0588828901613bb9565b9150509295509295909350565b60008060008060008060c08789031215613f2a578081fd5b8635955060208701356001600160401b0380821115613f47578283fd5b613f538a838b01613bb9565b96506040890135915080821115613f68578283fd5b613f748a838b01613bb9565b95506060890135915080821115613f89578283fd5b613f958a838b01613bb9565b94506080890135915080821115613faa578283fd5b50613fb789828a01613bb9565b92505060a087013590509295509295509295565b600080600060608486031215613fdf578283fd5b8335925060208401356001600160401b03811115613ffb578283fd5b61400786828701613bb9565b925050604084013590509250925092565b6000806000806080858703121561402d578182fd5b8435935060208501356001600160401b03811115614049578283fd5b61405587828801613bb9565b949794965050505060408301359260600135919050565b6000806040838503121561407e578182fd5b50508035926020909101359150565b6000806000606084860312156140a1578081fd5b505081359360208301359350604090920135919050565b6000602082840312156140c9578081fd5b81356001600160401b038111156140de578182fd5b6123cc84828501613bb9565b6000815180845260208085019450808401835b838110156141225781516001600160a01b0316875295820195908201906001016140fd565b509495945050505050565b60008151808452614145816020860160208601614758565b601f01601f19169290920160200192915050565b82815260008251614171816020850160208701614758565b919091016020019392505050565b83815260008351614197816020850160208801614758565b60609390931b6001600160601b031916602092909301918201929092526034019392505050565b838152600083516141d6816020850160208801614758565b60209201918201929092526040019392505050565b85815260008551614203816020850160208a01614758565b60209201918201949094526040810192909252606090811b6001600160601b031916908201526074019392505050565b60008251614245818460208701614758565b9190910192915050565b600080835461425d8161479f565b600182811680156142755760018114614286576142b2565b60ff198416875282870194506142b2565b8786526020808720875b858110156142a95781548a820152908401908201614290565b50505082870194505b50929695505050505050565b6020815260006106de60208301846140ea565b6000602080830181845280855180835260408601915060408160051b8701019250838701855b8281101561432557603f1988860301845261431385835161412d565b945092850192908501906001016142f7565b5092979650505050505050565b8415158152836020820152826040820152608060608201526000611948608083018461412d565b828152604060208201526000614372604083018461412d565b949350505050565b838152606060208201526000614393606083018561412d565b8281036040840152611948818561412d565b85815260a0602082015260006143be60a083018761412d565b82810360408401526143d0818761412d565b905082810360608401526143e4818661412d565b905082810360808401526143f8818561412d565b98975050505050505050565b60006101008a835280602084015261441e8184018b61412d565b90508281036040840152614432818a61412d565b90508281036060840152614446818961412d565b9050828103608084015261445a818861412d565b6001600160a01b039690961660a0840152505060c081019290925260e09091015295945050505050565b8381526000602060608184015261449e606084018661412d565b83810360408501528285546144b28161479f565b808452600182811680156144cd57600181146144e15761450c565b60ff1984168688015260408601945061450c565b898852868820885b848110156145045781548882018a01529083019088016144e9565b870188019550505b50929a9950505050505050505050565b6020815260006106de602083018461412d565b60c08152600061454260c083018961412d565b6001600160a01b039788166020840152604083019690965250929094166060830152608082015260a00191909152919050565b608081526000614588608083018761412d565b6001600160a01b03959095166020830152506040810192909252606090910152919050565b6040815260006145c0604083018561412d565b82810360208401526145d2818561412d565b95945050505050565b6060815260006145ee606083018661412d565b8281036020840152614600818661412d565b90508281036040840152611948818561412d565b608081526000614627608083018761412d565b8281036020840152614639818761412d565b9050828103604084015261464d818661412d565b9050828103606084015261466181856140ea565b979650505050505050565b6020808252600b908201526a139bdd08195e1c1a5c995960aa1b604082015260600190565b60208082526006908201526511195b9a595960d21b604082015260600190565b602080825260079082015266115e1c1a5c995960ca1b604082015260600190565b82815260406020820152600061437260408301846140ea565b8381528260208201526060604082015260006145d2606083018461412d565b6000821982111561471d5761471d6147f5565b500190565b600081600019048311821515161561473c5761473c6147f5565b500290565b600082821015614753576147536147f5565b500390565b60005b8381101561477357818101518382015260200161475b565b83811115614782576000848401525b50505050565b600081614797576147976147f5565b506000190190565b600181811c908216806147b357607f821691505b602082108114156147d457634e487b7160e01b600052602260045260246000fd5b50919050565b60006000198214156147ee576147ee6147f5565b5060010190565b634e487b7160e01b600052601160045260246000fd5b634e487b7160e01b600052604160045260246000fdfedb7bfe957d82520d83f2a439f82c0ab65bbe62c5da8b7b7aa22924c027ef518d069bf569f27d389f2c70410107860b2e82ff561283b097a89e897daa5e34b1b6123b642491709420c2370bb98c4e7de2b1bc05c5f9fd95ac4111e12683553c62a2646970667358221220b742f4339e9aab05d017639e0505029b899329bb4d5c3a31f1bd37731cdf52a864736f6c63430008040033",
  "linkReferences": {},
  "deployedLinkReferences": {}
}